:020000040800F2
:100000003805002039170008C1160008C31600087B
:10001000C5160008C7160008C91600080000000031
:10002000000000000000000000000000CB160008E7
:10003000CD16000800000000CF160008D1160008F9
:100040006D17000871170008751700087917000868
:100050007D17000881170008851700088917000818
:100060008D170008911700089517000899170008C8
:100070009D170008A1170008A5170008A917000878
:10008000AD170008B1170008B5170008B917000828
:10009000BD170008C1170008C5170008C9170008D8
:1000A000CD170008D1170008D5170008D917000888
:1000B000DD170008E1170008E5170008E917000838
:1000C000ED170008F1170008F5170008F9170008E8
:1000D000FD17000801180008051800080918000895
:1000E0000D18000811180008151800081918000844
:1000F0001D180008211800082518000829180008F4
:100100002D180008311800083518000839180008A3
:100110003D18000841180008451800084918000853
:100120004D18000851180008551800085918000803
:100130005D180008611800086518000869180008B3
:100140006D18000871180008751800087918000863
:100150007D180008D51600088118000885180008C9
:10016000891800088D1800089118000895180008D3
:10017000991800089D180008A11800080000000048
:10018000A5180008A91800087CB5044600F0A4F9D9
:1001900006460CB9012076BD04F1340502206870D2
:1001A0000020287000F067F921680868C20720D590
:1001B00000F092F9801B0628F6D320202862032045
:1001C00015E0B0F5005F09D1032E42D8DFE806F054
:1001D0000C0A0C02B1F1C07F3BD105E0022E03D91D
:1001E000F61E36D1C80134D540202862012068703F
:1001F00076BD0A68DFF86C02024060680243A068BE
:100200000243E06802432069024360690243A06937
:100210000243E0690243206A0243606A042803D172
:10022000E36A206B03431A430A6023685A69606AD1
:10023000D208042840EAC2020BD1A66AE16A32431E
:1002400039B1A0690028BCD1002E18BF022EC9D038
:10025000C0D35A61204600F025F9A96A3F228A409E
:1002600082600020286201206870002076BDF8B509
:10027000044604F1340600253078776A012801D15C
:100280000220F2BD01203070707801281BD10220BD
:1002900070703562204600F0F5F8B06A3F21814069
:1002A000B9602068016841F016010160F06820B172
:1002B0002068016841F0080101602068026842F08E
:1002C0000102026001E0357002252846F2BD2DE9E9
:1002D000FC41044604F134060020634900904FF4C9
:1002E0001650776A0A683D68B2FBF0F8B06A0821D8
:1002F00000F0BDF80ED02068026853070AD50368E5
:1003000023F004030360B06A8140B960306A40F0B2
:1003100001003062B06A25FA00F1C9070BD52168E7
:100320004A69110607D5012101FA00F0B860306A68
:1003300040F002003062042100F098F808D02168F3
:100340000A68930704D5B860306A40F00400306250
:10035000102100F08BF81BD021680A68130717D50D
:10036000B860206801684A0307D5006801030BD50F
:10037000716969B1204688470AE00168CA0503D45B
:10038000026822F008020260F16809B1204688473D
:10039000B06A202100F06BF845D021680A68D306C6
:1003A00041D5B86020687178052922D1026822F011
:1003B000160202602068416921F080014161F16804
:1003C000002904BF7069002804D02068016821F06A
:1003D000080101603F22B06A8240BA60012070705B
:1003E0000020F1693070002939D02046BDE8FC4179
:1003F000084701684A0307D5006801030FD4316933
:1004000089B1204688470EE00168CA0507D4026812
:1004100022F0100202600120707000203070B1687C
:1004200009B120468847306AC8B1316AC80710D57B
:100430000520707000F01FF820680099491C88455D
:10044000009102D30168CA07F7D401207070002020
:100450003070B16919B12046BDE8FC410847BDE8DC
:10046000F38100003F8010F00C000020B06A01FA18
:1004700000F00542704720680168490849000160A2
:100480007047000038B50468256825F4802525608C
:1004900063608068402802D1A260E16031BDA16044
:1004A000E26031BD81B0016801F0FF02103A18230B
:1004B000B2FBF3F20FF218039B5CC365890A890251
:1004C000042A28BF091D8165084601B07047000055
:1004D000000610160006101601484068704700BF5D
:1004E000000000202DE9F843040016D02078DFF842
:1004F0000C63C10713D5B06800F00C00042807D0C6
:10050000B06800F00C0008283ED1706841023BD56D
:100510003168880303D56068002800F001812178E4
:10052000B74F880719D5B06810F00C0F07D0B06826
:1005300000F00C00082858D17068410255D4316889
:10054000880703D5E068012840F0EA803168206917
:1005500021F0F80141EAC00131602178080768D52F
:100560006069A84900285ED001220A60FFF7B4FF45
:100570000546706F810700F1D580FFF7ADFF401B86
:100580000228F6D9032036E16068B0F5803F06D036
:10059000B0F5A02F316807D141F480213160306877
:1005A00040F48030306006E021F480313160326800
:1005B00022F480223260606858B1FFF78DFF054653
:1005C00031688803ABD4FFF787FF401B6528F7D35A
:1005D000D8E7FFF781FF0546306881039FD5FFF715
:1005E0007BFF401B6528F7D3CCE7E06870B10121A1
:1005F0003960FFF771FF05463068810700F1BE8062
:10060000FFF76AFF401B0228F6D9BBE73860FFF707
:1006100063FF0546306881079FD5FFF75DFF401BEC
:100620000228F7D9AEE70860FFF756FF0546706F5E
:10063000810777D5FFF750FF401B0228F7D9A1E7C4
:100640000528306F06D140F004003067306F40F06D
:10065000010005E0400840003067306F20F00400E2
:10066000306741F28938A06868B1FFF735FF8146ED
:10067000306F810700F18F80FFF72EFFA0EB09009C
:100680004045F5D37EE7FFF727FF8146306F8107AE
:1006900040F18180FFF720FFA0EB09004045F5D332
:1006A00070E7FFF719FF401B022840F2878069E7D7
:1006B000FFF712FF001B022840F2988062E700203B
:1006C0003866FFF709FF04463068810140F19280E7
:1006D000FFF702FF001B0228F6D953E701281FD0BD
:1006E0007068E26900F48001914202BF00F03F01AE
:1006F000226A914201BF47F6C0710140626AB1EBC4
:10070000821F0DD1A26A520800F44031521EB1EB93
:10071000024F02BF00F07060E16AB0EB016F69D078
:10072000012068E0207841073AD5306C0025C100EF
:100730000AD400950125306C40F080503064306C54
:1007400000F0805000900098DFF8BC80D8F80010CE
:10075000C8051BD4D8F8000040F48070C8F8000029
:10076000FFF7BAFE8146D8F80010C8050ED4FFF78F
:10077000B3FEA0EB09000228F5D903E73068216930
:1007800020F0F80040EAC1003060E6E6A0680128E9
:100790007FF456AF5AE71DB1306C20F080503064C2
:1007A000A06938B3B16801F00C01082996D002287D
:1007B00085D100203866FFF78FFE0546306881013D
:1007C0003FF56FAFE169206AA26A0143606A52088F
:1007D00041EA8011521EE06A41EA024141EA0061A9
:1007E000716001213966FFF777FE044630688101A8
:1007F0007FF55EAF0020BDE8F28300BF0038024005
:1008000000004742800E47420070004038B50400A7
:1008100001D1012032BD00F018F808B900F019F834
:1008200000F01CF800F024F8FFE7416100F001F847
:1008300032BD2068C16841F40051C1600020686089
:1008400020206870A8700020704704F13C0568788B
:10085000704700212970204600F054B924206870A8
:100860002068C16821F40051C160204600F0E7B85B
:100870002068016921F4904101612068416921F0FB
:100880002A01704770B5044604F13C0513466878A8
:10089000202832D109B1180001D1012070BD28787B
:1008A00001282AD001222A702162A384E384002037
:1008B000686021206870626B0FF24500D063626B44
:1008C0000FF289001064626B0FF28900D06400207F
:1008D000666B30652068021D606BFFF7C8FC2168FD
:1008E0006FF0400008600020287000F05EF841F0D2
:1008F000800100F056F8F8D170BD022070BD0000F4
:100900000146886B09680A68D3051CD40021C1849C
:10091000016801F1140252E8002F01F1140322F0E2
:10092000800243E800210029F2D1016801F10C02A4
:1009300052E8002F01F10C0342F0400243E800218D
:100940000029F2D1704700F0E3B90000806B00F09D
:100950000FBA000038B5846B2068406904F13D058A
:100960002978212906D1000604D50020E0842046FC
:1009700000F023F8206840696978222906D14006F2
:1009800004D50020E085204600F028F8206C40F0D7
:10099000100020642046BDE8324000F0EAB921F49E
:1009A000F07142E8001000287047206800F114013F
:1009B00051E8001F00F114027047016801F10C02B8
:1009C00052E8002F01F10C0322F0C00243E800219D
:1009D0000029F2D1202180F83D107047016801F113
:1009E0000C0252E8002F01F10C0322F4907243E84C
:1009F00000210029F2D1016801F1140252E8002F10
:100A0000520801F11403520043E800210029F2D1F9
:100A1000016B01290CD1016801F10C0252E8002F91
:100A200001F10C0322F0100243E800210029F2D169
:100A3000202180F83E1000210163704700007CB542
:100A4000044621680A69E06822F4405202430A61C0
:100A50002648CA680240A0680243206902436069D0
:100A60000243E0690243CA604A69A06922F4407205
:100A700002431F484A6181421CBF1E48814202D185
:100A800000F006FA01E000F0FBF962682568E4690D
:100A900064261921B4F5004FA1FB000112D1D30F38
:100AA000520000F039FA00F027F8F60032366420E0
:100AB000B6FBF0F0420002F4F87202EB011200F013
:100AC000070010E0930F920000F026FA00F014F8EF
:100AD000360132366420B6FBF0F000F0F00202EB93
:100AE000011200F00F008018A86073BDF369FFFFCA
:100AF00000100140001401406421B0FBF1F106FB3D
:100B0000110670477047000010B50A0018BF002892
:100B100009D0864C217809B1022010BD0146201D64
:100B2000FFF7B0FE08B1012010BD012020700020A9
:100B300010BD70B592B000F007FB002000900021BE
:100B40007B4C206940F080502061206900F080508B
:100B500000900098774800910121026842F4804299
:100B600002604FF48032006800F4804000900098EA
:100B7000069102200C904FF480010D9108200E90F8
:100B80004FF4A8710F910220109007210792119144
:100B900006A8FFF7A7FC00B1FEE70F200190022195
:100BA0000020029103904FF4A0514FF48050049123
:100BB0000590052101A800F0DDF800B1FEE700F086
:100BC000D7FA41F20101884204D15B48016841F43F
:100BD0008071016001A8142100F0D2FA0020009079
:100BE0002168564D514E41F00801216000212068D6
:100BF00000F008000090009800914FF41041226826
:100C000042F0040222600022206800F004000090FC
:100C10000098284600F097FB4FF410400190012106
:100C2000002002910390049001A9284600F0ACFA3C
:100C3000C02001900221012002910390032108208D
:100C40000491059001A93E4800F09EFA0020009012
:100C5000616941F02001616160693A4900F020005A
:100C60000090009871604FF41650B0600020F06062
:100C7000306170610820B0610020F0613062301D89
:100C8000FFF7C4FD00200090216841F4800121603D
:100C900020682D4C2D4900F48000009000982160C0
:100CA0004020A0604FF020610020E06061604FF4C0
:100CB0008060206100206061A061E061206260626C
:100CC0002046FFF761FA00B1FEE7B463301DA06370
:100CD00000220521452000F077FB452000F091FB24
:100CE0001C220FF26C0104F1600000F0B7FB1C2124
:100CF00004F16000FFF708FF00B1FEE74FF4FA705F
:100D000000F0F0FB4FF48051284600F022FBF5E79D
:100D100000680C49884207D1044A08480021117034
:100D20004FF4004100F015BB70470000F0000020B8
:100D30003038024000700040003C0240000C02408D
:100D4000000802400014014010000020A06402408E
:100D500048656C6C6F2066726F6D2053544D333252
:100D6000207669612048432D30350D0A00000000CF
:100D7000704770472DE9F84304000F4678D0494E7C
:100D8000306800F00700B84202D200F073F86FD16B
:100D90002068454D810712D5400703D5A86840F467
:100DA000E050A8602178080703D5A86840F46040A7
:100DB000A860A968A06821F0F0010143A96020782B
:100DC000C1074DD56068012802D129688A0305E072
:100DD000022818BF032803D129688A0103D447E0F9
:100DE0002A68910744D5A968890840EA8100A8606B
:100DF00041F28939FFF770FB8046A868616800F00E
:100E00000C00B0EB810F2BD0FFF766FBA0EB0800C6
:100E10004845F2D3032021E02078410705D5A96891
:100E2000E06821F4E0510143A9602078010706D56C
:100E3000A868216920F4604040EAC100A86000F081
:100E40003FF8AA681949C2F30312895C184AC840DE
:100E500010601848006800F059FB0020BDE8F283DC
:100E6000306800F007008742D6D200F003F8D3D0F4
:100E70000120F3E73770316801F00701B94270478C
:100E80000B480D4A006813680C49C3F3822206E040
:100E90000748094A006813680849C3F34232895C6D
:100EA000C8407047003C024000380240D41500089A
:100EB0000C000020080000200838024064170008D9
:100EC00018B5124C606800F00C00042802D0082805
:100ED00002D019E00E4812BD0023226820684102AA
:100EE0002068C0F388104CBF09490A4902F03F024C
:100EF000A1FB000100F010F82168C1F30141491C79
:100F00004900B0FBF1F012BD024812BD04380240A6
:100F100000127A000024F400B3BBD9B1B2F5803FCF
:100F20007DD2022A1ED98C46B1FBF2F102FB11C31D
:100F30001B0443EA1043B3FBF2FC02FB1C3380B2F8
:100F400040EA0343B3FBF2F002FB103240EA0C40EC
:100F500000237047022A05D98446B0FBF2F002FB59
:100F600010C270474AB105D100F0010249085FEA9A
:100F70003000704700220023704700F0E7BA0B00F2
:100F80000200002100207047904271EB030CF6D361
:100F9000B3F5803F2FD2F0B5B3FA83F7B1FA81F4FD
:100FA000A7F10F0E3D1B5340CEF1200602FA0EF2C0
:100FB000F3415340B5F10F0746D80F3C2C44414054
:100FC000C4F12006A040F1414140B1FBF3F603FB20
:100FD0001611A2FB0645001BA94102D2761E8018FD
:100FE000594180EA010221FA0EF362FA0EF2002161
:100FF0005A403046F0BD30B4B1FBF3FC03FB1C118A
:10100000A2FB0C45001BA94103D2ACF1010C8018D6
:10101000594130BC02460B46604600217047B2F190
:10102000807F65D3F0B5B2FA82F7B1FA81F4C7F1E7
:101030000F063D1B22FA06F307F1110EF24120358F
:101040005A40B5F10F07B8D94140C4F12006A0407D
:10105000F1414140B1FBF3FC03FB1C11A2FB0C4529
:10106000001BA94103D2BCF1010C801859410F2F7C
:1010700012D30F3FC90341EA5041B1FBF3F603FB22
:101080001611A2FB0645D4EBC030A94102D2761E50
:101090008018594146EACC3C07B34140C7F12006CD
:1010A000B840F1414140B1FBF3F603FB1611A2FB3E
:1010B0000645001BA94102D2761E8018594180EADC
:1010C000010221FA0EF3C7F1200462FA0EF20CFAC3
:1010D00007F05A402CFA04F13043F0BD80EA0102D7
:1010E00021FA0EF3002162FA0EF260465A40F0BD7A
:1010F0008C46B1FBF2F102FB11C31B0243EA106301
:10110000B3FBF2FC02FB1C331B024CEA002043EA57
:101110001063B3FBF2FC02FB1C331B024CEA002001
:1011200043EA1063B3FBF2FC02FB1C331B024CEAE4
:10113000002043EA1063B3FBF2FC02FB1C324CEAD2
:10114000002000237047000080B50B48016841F47F
:1011500000710160026842F480620260032000F0C6
:1011600026F90F2000F0D2F900F0F1F9002002BDBD
:1011700002480068000C7047003C0240002004E078
:10118000002200F0E5B900002DE9F84F0D464FF0C0
:1011900000087449744A0F23044601202E6800FA9F
:1011A00008F000EA0609814540F0C5804FEA480C86
:1011B000032606FA0CF66FEA060E6E6806F00307C1
:1011C000012F1CBF06F00306022E11D1A668EF689E
:1011D0000EEA060607FA0CF73E43A660666826EAA2
:1011E00000006E68C6F3001606FA08F63043606029
:1011F0004FEA88002E7906F00306032E1FD0E6681A
:10120000AF680EEA060607FA0CF73E43E6602E7951
:1012100006F00306022E12D14FEAD80704EB870628
:1012200000F01C07D6F820A003FA07FB2AEA0B0AF5
:10123000D5F810B00BFA07F747EA0A0737622668B5
:101240000EEA06072E7906F0030606FA0CF63E4370
:1012500026606E6816F4403F6DD0002600964FEA77
:10126000980C1668DFF804E146F48046166000F03A
:101270000C00166806F480460096009E5EF82C70FE
:1012800003FA00F627EA0606394FBC4208BF0027DA
:1012900022D0384FBC4208BF01271DD0364FBC4278
:1012A00008BF022718D0354FBC4208BF032713D010
:1012B000334FBC4208BF04270ED0324FBC4208BF98
:1012C000052709D0304FBC4208BF062704D02F4F56
:1012D000BC420CBF0727082707FA00F030434EF83E
:1012E0002C006FEA09008E6800EA060C6E68F602B0
:1012F00048BF49EA0C0CC1F808C0CE6800EA060CE9
:101300006E68B60248BF49EA0C0CC1F80CC04E68C2
:1013100000EA060C6E68B60348BF49EA0C0CC1F837
:1013200004C00E6800EA060C6868C00348BF49EABA
:101330000C0CC1F800C008F10108B8F10F0F7FF6DE
:101340002CAFBDE8F18F81B002B90904816101B011
:101350007047426901EA0203914341EA0341816116
:1013600070470000003C014044380240083801400A
:10137000000002400004024000080240000C02404D
:10138000001002400014024000180240001C0240FD
:101390000901002881B002D42A4A115405E02A4AE2
:1013A00000F00F00104400F8041C01B07047274AF9
:1013B00013684FF6FF0100020B4000F4E060184391
:1013C000234908431060704738B5204B1C68C4F3AC
:1013D0000223C3F10704052C28BF04241D1D072D7B
:1013E00034BF0023DB1E012505FA04F4641E2140EE
:1013F000994005FA03F35B1E1A401143BDE83440DF
:10140000C6E7010008D4012200F01F0002FA00F034
:10141000104A490942F82100704710B5401EB0F14A
:10142000807F01D3012010BD0B4C60600F214FF075
:10143000FF30FFF7ADFF0022A260072020600020F0
:1014400010BD000000E400E018ED00E00CED00E04D
:101450000000FA0500E100E010E000E0103A07D3D8
:1014600030B4B1E83810103AA0E83810F9D230BCE6
:10147000530724BFB1E80810A0E8081044BF51F892
:10148000043B40F8043BD20724BF31F8022B20F87C
:10149000022B44BF0B7803707047121F17D35B00F9
:1014A00009D151F8043B20F8023B1B0C121F20F815
:1014B000023BF6D20BE051F8043B00F8013B1B0A5B
:1014C00020F8023B1B0C121F00F8013BF3D238BF7F
:1014D000121D521E24BF11F8013B00F8013BF8D841
:1014E0007047000038B50446FEF7F6FF14F1010F0F
:1014F000054602D0044801786418FEF7EDFF401B52
:10150000A042FAD331BD00BF0000002038B50D4D18
:101510000D4A297804464FF47A70B0FBF1F1106857
:10152000B0FBF1F0FFF779FF50B9102C08D2002280
:1015300021464FF0FF30FFF747FFAC60002032BD7F
:10154000012032BD000000200C00002070477047D1
:1015500000B500BF130096469446103928BFA0E896
:101560000C50FAD85FEA417C28BF0CC048BF40F855
:10157000042BC90728BF20F8022B48BF00F8012B15
:1015800000BD00000E48016841F4700101600022B6
:101590000C49086840F0010008608A600A480A683F
:1015A00002400A60002209484860086820F4802050
:1015B0000860CA604FF0006005490860704700008D
:1015C00088ED00E000380240FFFFF6FE10300024F6
:1015D00008ED00E00000000000000000010203042C
:1015E0000607080919E050F8042BD30744BFA9F1F6
:1015F00001039A18091F0023042942F8043BF9D279
:101600005FEA817C134604D54FF0000CA2F800C0BD
:101610009B1CC90744BF0021197050F8041B002906
:10162000E1D1704710B450F8041B79B102684368E7
:1016300002440830DC0744BFA9F10104E31852F862
:10164000044B43F8044B091FF9D1ECE710BC704779
:1016500010B5074979441831064C7C44163404E02F
:101660000A68081D114488470146A142F8D110BDFF
:101670002C0000004C0000004EF68851CEF2000114
:10168000086840F470000860BFF34F8FBFF36F8F9E
:101690004FF00070E1EE100A7047000049FFFFFFB5
:1016A00028010000100000200000000079FFFFFF6B
:1016B0001000000094000000000000200000000066
:1016C0007047FEE7FEE7FEE7FEE7704770477047AA
:1016D00000F006B80148FEF7FABD00001000002037
:1016E0000248416802788918416070470000002074
:1016F00000F00DF8002801D0FFF7AAFFAFF300803B
:101700000020AFF30080FFF714FA00F002F8012088
:10171000704700F001B800000746384600F002F8B4
:10172000FBE7000080B5AFF30080024A11001820EB
:10173000ABBEFBE726000200014880470148004796
:10174000851500085917000801000000000000007E
:10175000100000000024F400AFF30080FFF78CFFBE
:10176000FFF7C6FF0000000001020304FFF7FEBF01
:10177000FFF7FEBFFFF7FEBFFFF7FEBFFFF7FEBF9D
:10178000FFF7FEBFFFF7FEBFFFF7FEBFFFF7FEBF8D
:10179000FFF7FEBFFFF7FEBFFFF7FEBFFFF7FEBF7D
:1017A000FFF7FEBFFFF7FEBFFFF7FEBFFFF7FEBF6D
:1017B000FFF7FEBFFFF7FEBFFFF7FEBFFFF7FEBF5D
:1017C000FFF7FEBFFFF7FEBFFFF7FEBFFFF7FEBF4D
:1017D000FFF7FEBFFFF7FEBFFFF7FEBFFFF7FEBF3D
:1017E000FFF7FEBFFFF7FEBFFFF7FEBFFFF7FEBF2D
:1017F000FFF7FEBFFFF7FEBFFFF7FEBFFFF7FEBF1D
:10180000FFF7FEBFFFF7FEBFFFF7FEBFFFF7FEBF0C
:10181000FFF7FEBFFFF7FEBFFFF7FEBFFFF7FEBFFC
:10182000FFF7FEBFFFF7FEBFFFF7FEBFFFF7FEBFEC
:10183000FFF7FEBFFFF7FEBFFFF7FEBFFFF7FEBFDC
:10184000FFF7FEBFFFF7FEBFFFF7FEBFFFF7FEBFCC
:10185000FFF7FEBFFFF7FEBFFFF7FEBFFFF7FEBFBC
:10186000FFF7FEBFFFF7FEBFFFF7FEBFFFF7FEBFAC
:10187000FFF7FEBFFFF7FEBFFFF7FEBFFFF7FEBF9C
:10188000FFF7FEBFFFF7FEBFFFF7FEBFFFF7FEBF8C
:10189000FFF7FEBFFFF7FEBFFFF7FEBFFFF7FEBF7C
:0C18A000FFF7FEBFFFF7FEBFFFF7FEBF23
:04000005080017597F
:00000001FF
